{
  "_format": "hh-sol-artifact-1",
  "contractName": "Social",
  "sourceName": "contracts/Social.sol",
  "abi": [
    {
      "inputs": [],
      "stateMutability": "nonpayable",
      "type": "constructor"
    },
    {
      "inputs": [
        {
          "internalType": "string",
          "name": "_message",
          "type": "string"
        }
      ],
      "name": "addMessage",
      "outputs": [],
      "stateMutability": "nonpayable",
      "type": "function"
    },
    {
      "inputs": [
        {
          "internalType": "string",
          "name": "_username",
          "type": "string"
        }
      ],
      "name": "addUser",
      "outputs": [],
      "stateMutability": "nonpayable",
      "type": "function"
    },
    {
      "inputs": [],
      "name": "displayMessages",
      "outputs": [
        {
          "components": [
            {
              "internalType": "address",
              "name": "id",
              "type": "address"
            },
            {
              "internalType": "string",
              "name": "text",
              "type": "string"
            },
            {
              "internalType": "uint256",
              "name": "timestamp",
              "type": "uint256"
            },
            {
              "internalType": "bool",
              "name": "exists",
              "type": "bool"
            },
            {
              "internalType": "address[]",
              "name": "likes",
              "type": "address[]"
            },
            {
              "internalType": "uint256",
              "name": "likeCount",
              "type": "uint256"
            }
          ],
          "internalType": "struct Social.Message[]",
          "name": "",
          "type": "tuple[]"
        }
      ],
      "stateMutability": "view",
      "type": "function"
    },
    {
      "inputs": [
        {
          "internalType": "string",
          "name": "_username",
          "type": "string"
        }
      ],
      "name": "findMessages",
      "outputs": [
        {
          "components": [
            {
              "internalType": "address",
              "name": "id",
              "type": "address"
            },
            {
              "internalType": "string",
              "name": "text",
              "type": "string"
            },
            {
              "internalType": "uint256",
              "name": "timestamp",
              "type": "uint256"
            },
            {
              "internalType": "bool",
              "name": "exists",
              "type": "bool"
            },
            {
              "internalType": "address[]",
              "name": "likes",
              "type": "address[]"
            },
            {
              "internalType": "uint256",
              "name": "likeCount",
              "type": "uint256"
            }
          ],
          "internalType": "struct Social.Message[]",
          "name": "",
          "type": "tuple[]"
        }
      ],
      "stateMutability": "view",
      "type": "function"
    },
    {
      "inputs": [
        {
          "internalType": "address",
          "name": "_user",
          "type": "address"
        }
      ],
      "name": "findUsername",
      "outputs": [
        {
          "internalType": "string",
          "name": "",
          "type": "string"
        }
      ],
      "stateMutability": "view",
      "type": "function"
    },
    {
      "inputs": [
        {
          "internalType": "uint256",
          "name": "index",
          "type": "uint256"
        }
      ],
      "name": "likeMessage",
      "outputs": [],
      "stateMutability": "nonpayable",
      "type": "function"
    },
    {
      "inputs": [],
      "name": "myMessages",
      "outputs": [
        {
          "components": [
            {
              "internalType": "address",
              "name": "id",
              "type": "address"
            },
            {
              "internalType": "string",
              "name": "text",
              "type": "string"
            },
            {
              "internalType": "uint256",
              "name": "timestamp",
              "type": "uint256"
            },
            {
              "internalType": "bool",
              "name": "exists",
              "type": "bool"
            },
            {
              "internalType": "address[]",
              "name": "likes",
              "type": "address[]"
            },
            {
              "internalType": "uint256",
              "name": "likeCount",
              "type": "uint256"
            }
          ],
          "internalType": "struct Social.Message[]",
          "name": "",
          "type": "tuple[]"
        }
      ],
      "stateMutability": "view",
      "type": "function"
    },
    {
      "inputs": [],
      "name": "owner",
      "outputs": [
        {
          "internalType": "address",
          "name": "",
          "type": "address"
        }
      ],
      "stateMutability": "view",
      "type": "function"
    },
    {
      "inputs": [
        {
          "internalType": "address",
          "name": "",
          "type": "address"
        },
        {
          "internalType": "uint256",
          "name": "",
          "type": "uint256"
        }
      ],
      "name": "thread",
      "outputs": [
        {
          "internalType": "address",
          "name": "id",
          "type": "address"
        },
        {
          "internalType": "string",
          "name": "text",
          "type": "string"
        },
        {
          "internalType": "uint256",
          "name": "timestamp",
          "type": "uint256"
        },
        {
          "internalType": "bool",
          "name": "exists",
          "type": "bool"
        },
        {
          "internalType": "uint256",
          "name": "likeCount",
          "type": "uint256"
        }
      ],
      "stateMutability": "view",
      "type": "function"
    },
    {
      "inputs": [
        {
          "internalType": "string",
          "name": "",
          "type": "string"
        }
      ],
      "name": "usernames",
      "outputs": [
        {
          "internalType": "address",
          "name": "id",
          "type": "address"
        },
        {
          "internalType": "string",
          "name": "username",
          "type": "string"
        }
      ],
      "stateMutability": "view",
      "type": "function"
    },
    {
      "inputs": [
        {
          "internalType": "address",
          "name": "",
          "type": "address"
        }
      ],
      "name": "users",
      "outputs": [
        {
          "internalType": "address",
          "name": "id",
          "type": "address"
        },
        {
          "internalType": "string",
          "name": "username",
          "type": "string"
        }
      ],
      "stateMutability": "view",
      "type": "function"
    }
  ],
  "bytecode": "0x60806040523480156200001157600080fd5b50336000806101000a81548173ffffffffffffffffffffffffffffffffffffffff021916908373ffffffffffffffffffffffffffffffffffffffff160217905550606060006040518060c001604052803373ffffffffffffffffffffffffffffffffffffffff1681526020016040518060400160405280601581526020017f4e657720636f6e7472616374206465706c6f7965640000000000000000000000815250815260200142815260200160011515815260200183815260200160008152509050600260003373ffffffffffffffffffffffffffffffffffffffff1673ffffffffffffffffffffffffffffffffffffffff16815260200190815260200160002081908060018154018082558091505060019003906000526020600020906006020160009091909190915060008201518160000160006101000a81548173ffffffffffffffffffffffffffffffffffffffff021916908373ffffffffffffffffffffffffffffffffffffffff16021790555060208201518160010190816200019b9190620007aa565b506040820151816002015560608201518160030160006101000a81548160ff0219169083151502179055506080820151816004019080519060200190620001e492919062000482565b5060a082015181600501555050600060405180604001604052803373ffffffffffffffffffffffffffffffffffffffff1681526020016040518060400160405280600581526020017f4f776e6572000000000000000000000000000000000000000000000000000000815250815250905080600360008060009054906101000a900473ffffffffffffffffffffffffffffffffffffffff1673ffffffffffffffffffffffffffffffffffffffff1673ffffffffffffffffffffffffffffffffffffffff16815260200190815260200160002060008201518160000160006101000a81548173ffffffffffffffffffffffffffffffffffffffff021916908373ffffffffffffffffffffffffffffffffffffffff1602179055506020820151816001019081620003149190620007aa565b509050508060046040516200032990620008ec565b908152602001604051809103902060008201518160000160006101000a81548173ffffffffffffffffffffffffffffffffffffffff021916908373ffffffffffffffffffffffffffffffffffffffff1602179055506020820151816001019081620003959190620007aa565b50905050600182908060018154018082558091505060019003906000526020600020906006020160009091909190915060008201518160000160006101000a81548173ffffffffffffffffffffffffffffffffffffffff021916908373ffffffffffffffffffffffffffffffffffffffff1602179055506020820151816001019081620004239190620007aa565b506040820151816002015560608201518160030160006101000a81548160ff02191690831515021790555060808201518160040190805190602001906200046c92919062000482565b5060a08201518160050155505050505062000903565b828054828255906000526020600020908101928215620004fe579160200282015b82811115620004fd5782518260006101000a81548173ffffffffffffffffffffffffffffffffffffffff021916908373ffffffffffffffffffffffffffffffffffffffff16021790555091602001919060010190620004a3565b5b5090506200050d919062000511565b5090565b5b808211156200052c57600081600090555060010162000512565b5090565b600081519050919050565b7f4e487b7100000000000000000000000000000000000000000000000000000000600052604160045260246000fd5b7f4e487b7100000000000000000000000000000000000000000000000000000000600052602260045260246000fd5b60006002820490506001821680620005b257607f821691505b602082108103620005c857620005c76200056a565b5b50919050565b60008190508160005260206000209050919050565b60006020601f8301049050919050565b600082821b905092915050565b600060088302620006327fffffffffffffffffffffffffffffffffffffffffffffffffffffffffffffffff82620005f3565b6200063e8683620005f3565b95508019841693508086168417925050509392505050565b6000819050919050565b6000819050919050565b60006200068b620006856200067f8462000656565b62000660565b62000656565b9050919050565b6000819050919050565b620006a7836200066a565b620006bf620006b68262000692565b84845462000600565b825550505050565b600090565b620006d6620006c7565b620006e38184846200069c565b505050565b5b818110156200070b57620006ff600082620006cc565b600181019050620006e9565b5050565b601f8211156200075a576200072481620005ce565b6200072f84620005e3565b810160208510156200073f578190505b620007576200074e85620005e3565b830182620006e8565b50505b505050565b600082821c905092915050565b60006200077f600019846008026200075f565b1980831691505092915050565b60006200079a83836200076c565b9150826002028217905092915050565b620007b58262000530565b67ffffffffffffffff811115620007d157620007d06200053b565b5b620007dd825462000599565b620007ea8282856200070f565b600060209050601f8311600181146200082257600084156200080d578287015190505b6200081985826200078c565b86555062000889565b601f1984166200083286620005ce565b60005b828110156200085c5784890151825560018201915060208501945060208101905062000835565b868310156200087c578489015162000878601f8916826200076c565b8355505b6001600288020188555050505b505050505050565b600081905092915050565b7f4f776e6572000000000000000000000000000000000000000000000000000000600082015250565b6000620008d460058362000891565b9150620008e1826200089c565b600582019050919050565b6000620008f982620008c5565b9150819050919050565b611f4580620009136000396000f3fe608060405234801561001057600080fd5b50600436106100a95760003560e01c80636a226a49116100715780636a226a49146101685780638da5cb5b14610184578063a87430ba146101a2578063aaee301f146101d3578063c4c661c014610204578063d4370f3b14610222576100a9565b806316af80ad146100ae57806318b8275a146100e257806328627a44146100fe578063332731621461012e5780634baeb4db1461014c575b600080fd5b6100c860048036038101906100c3919061148a565b610252565b6040516100d9959493929190611593565b60405180910390f35b6100fc60048036038101906100f79190611722565b61035a565b005b6101186004803603810190610113919061176b565b6104ac565b6040516101259190611798565b60405180910390f35b610136610580565b6040516101439190611a32565b60405180910390f35b61016660048036038101906101619190611a54565b610784565b005b610182600480360381019061017d9190611722565b610960565b005b61018c610ba7565b6040516101999190611a81565b60405180910390f35b6101bc60048036038101906101b7919061176b565b610bcb565b6040516101ca929190611a9c565b60405180910390f35b6101ed60048036038101906101e89190611722565b610c97565b6040516101fb929190611a9c565b60405180910390f35b61020c610d79565b6040516102199190611a32565b60405180910390f35b61023c60048036038101906102379190611722565b610fba565b6040516102499190611a32565b60405180910390f35b6002602052816000526040600020818154811061026e57600080fd5b9060005260206000209060060201600091509150508060000160009054906101000a900473ffffffffffffffffffffffffffffffffffffffff16908060010180546102b890611afb565b80601f01602080910402602001604051908101604052809291908181526020018280546102e490611afb565b80156103315780601f1061030657610100808354040283529160200191610331565b820191906000526020600020905b81548152906001019060200180831161031457829003601f168201915b5050505050908060020154908060030160009054906101000a900460ff16908060050154905085565b600060405180604001604052803373ffffffffffffffffffffffffffffffffffffffff16815260200183815250905080600360003373ffffffffffffffffffffffffffffffffffffffff1673ffffffffffffffffffffffffffffffffffffffff16815260200190815260200160002060008201518160000160006101000a81548173ffffffffffffffffffffffffffffffffffffffff021916908373ffffffffffffffffffffffffffffffffffffffff16021790555060208201518160010190816104259190611cd8565b509050508060048360405161043a9190611de6565b908152602001604051809103902060008201518160000160006101000a81548173ffffffffffffffffffffffffffffffffffffffff021916908373ffffffffffffffffffffffffffffffffffffffff16021790555060208201518160010190816104a49190611cd8565b509050505050565b6060600360008373ffffffffffffffffffffffffffffffffffffffff1673ffffffffffffffffffffffffffffffffffffffff16815260200190815260200160002060010180546104fb90611afb565b80601f016020809104026020016040519081016040528092919081815260200182805461052790611afb565b80156105745780601f1061054957610100808354040283529160200191610574565b820191906000526020600020905b81548152906001019060200180831161055757829003601f168201915b50505050509050919050565b60606001805480602002602001604051908101604052809291908181526020016000905b8282101561077b57838290600052602060002090600602016040518060c00160405290816000820160009054906101000a900473ffffffffffffffffffffffffffffffffffffffff1673ffffffffffffffffffffffffffffffffffffffff1673ffffffffffffffffffffffffffffffffffffffff16815260200160018201805461062d90611afb565b80601f016020809104026020016040519081016040528092919081815260200182805461065990611afb565b80156106a65780601f1061067b576101008083540402835291602001916106a6565b820191906000526020600020905b81548152906001019060200180831161068957829003601f168201915b50505050508152602001600282015481526020016003820160009054906101000a900460ff161515151581526020016004820180548060200260200160405190810160405280929190818152602001828054801561075957602002820191906000526020600020905b8160009054906101000a900473ffffffffffffffffffffffffffffffffffffffff1673ffffffffffffffffffffffffffffffffffffffff168152602001906001019080831161070f575b50505050508152602001600582015481525050815260200190600101906105a4565b50505050905090565b60018054905081106107cb576040517f08c379a00000000000000000000000000000000000000000000000000000000081526004016107c290611e49565b60405180910390fd5b6000600182815481106107e1576107e0611e69565b5b906000526020600020906006020190506000805b8260040180549050811015610893573373ffffffffffffffffffffffffffffffffffffffff1683600401828154811061083157610830611e69565b5b9060005260206000200160009054906101000a900473ffffffffffffffffffffffffffffffffffffffff1673ffffffffffffffffffffffffffffffffffffffff16036108805760019150610893565b808061088b90611ec7565b9150506107f5565b508061095b57600183815481106108ad576108ac611e69565b5b9060005260206000209060060201600401339080600181540180825580915050600190039060005260206000200160009091909190916101000a81548173ffffffffffffffffffffffffffffffffffffffff021916908373ffffffffffffffffffffffffffffffffffffffff1602179055506001838154811061093357610932611e69565b5b9060005260206000209060060201600501600081548092919061095590611ec7565b91905055505b505050565b606060006040518060c001604052803373ffffffffffffffffffffffffffffffffffffffff16815260200184815260200142815260200160011515815260200183815260200160008152509050600260003373ffffffffffffffffffffffffffffffffffffffff1673ffffffffffffffffffffffffffffffffffffffff16815260200190815260200160002081908060018154018082558091505060019003906000526020600020906006020160009091909190915060008201518160000160006101000a81548173ffffffffffffffffffffffffffffffffffffffff021916908373ffffffffffffffffffffffffffffffffffffffff1602179055506020820151816001019081610a729190611cd8565b506040820151816002015560608201518160030160006101000a81548160ff0219169083151502179055506080820151816004019080519060200190610ab99291906112ed565b5060a082015181600501555050600181908060018154018082558091505060019003906000526020600020906006020160009091909190915060008201518160000160006101000a81548173ffffffffffffffffffffffffffffffffffffffff021916908373ffffffffffffffffffffffffffffffffffffffff1602179055506020820151816001019081610b4e9190611cd8565b506040820151816002015560608201518160030160006101000a81548160ff0219169083151502179055506080820151816004019080519060200190610b959291906112ed565b5060a082015181600501555050505050565b60008054906101000a900473ffffffffffffffffffffffffffffffffffffffff1681565b60036020528060005260406000206000915090508060000160009054906101000a900473ffffffffffffffffffffffffffffffffffffffff1690806001018054610c1490611afb565b80601f0160208091040260200160405190810160405280929190818152602001828054610c4090611afb565b8015610c8d5780601f10610c6257610100808354040283529160200191610c8d565b820191906000526020600020905b815481529060010190602001808311610c7057829003601f168201915b5050505050905082565b6004818051602081018201805184825260208301602085012081835280955050505050506000915090508060000160009054906101000a900473ffffffffffffffffffffffffffffffffffffffff1690806001018054610cf690611afb565b80601f0160208091040260200160405190810160405280929190818152602001828054610d2290611afb565b8015610d6f5780601f10610d4457610100808354040283529160200191610d6f565b820191906000526020600020905b815481529060010190602001808311610d5257829003601f168201915b5050505050905082565b6060600260003373ffffffffffffffffffffffffffffffffffffffff1673ffffffffffffffffffffffffffffffffffffffff168152602001908152602001600020805480602002602001604051908101604052809291908181526020016000905b82821015610fb157838290600052602060002090600602016040518060c00160405290816000820160009054906101000a900473ffffffffffffffffffffffffffffffffffffffff1673ffffffffffffffffffffffffffffffffffffffff1673ffffffffffffffffffffffffffffffffffffffff168152602001600182018054610e6390611afb565b80601f0160208091040260200160405190810160405280929190818152602001828054610e8f90611afb565b8015610edc5780601f10610eb157610100808354040283529160200191610edc565b820191906000526020600020905b815481529060010190602001808311610ebf57829003601f168201915b50505050508152602001600282015481526020016003820160009054906101000a900460ff1615151515815260200160048201805480602002602001604051908101604052809291908181526020018280548015610f8f57602002820191906000526020600020905b8160009054906101000a900473ffffffffffffffffffffffffffffffffffffffff1673ffffffffffffffffffffffffffffffffffffffff1681526020019060010190808311610f45575b5050505050815260200160058201548152505081526020019060010190610dda565b50505050905090565b60606000600483604051610fce9190611de6565b908152602001604051809103902060000160009054906101000a900473ffffffffffffffffffffffffffffffffffffffff1690506000600260008373ffffffffffffffffffffffffffffffffffffffff1673ffffffffffffffffffffffffffffffffffffffff16815260200190815260200160002080549050111561128f57600260008273ffffffffffffffffffffffffffffffffffffffff1673ffffffffffffffffffffffffffffffffffffffff168152602001908152602001600020805480602002602001604051908101604052809291908181526020016000905b8282101561128357838290600052602060002090600602016040518060c00160405290816000820160009054906101000a900473ffffffffffffffffffffffffffffffffffffffff1673ffffffffffffffffffffffffffffffffffffffff1673ffffffffffffffffffffffffffffffffffffffff16815260200160018201805461113590611afb565b80601f016020809104026020016040519081016040528092919081815260200182805461116190611afb565b80156111ae5780601f10611183576101008083540402835291602001916111ae565b820191906000526020600020905b81548152906001019060200180831161119157829003601f168201915b50505050508152602001600282015481526020016003820160009054906101000a900460ff161515151581526020016004820180548060200260200160405190810160405280929190818152602001828054801561126157602002820191906000526020600020905b8160009054906101000a900473ffffffffffffffffffffffffffffffffffffffff1673ffffffffffffffffffffffffffffffffffffffff1681526020019060010190808311611217575b50505050508152602001600582015481525050815260200190600101906110ac565b505050509150506112e8565b600067ffffffffffffffff8111156112aa576112a96115f7565b5b6040519080825280602002602001820160405280156112e357816020015b6112d0611377565b8152602001906001900390816112c85790505b509150505b919050565b828054828255906000526020600020908101928215611366579160200282015b828111156113655782518260006101000a81548173ffffffffffffffffffffffffffffffffffffffff021916908373ffffffffffffffffffffffffffffffffffffffff1602179055509160200191906001019061130d565b5b50905061137391906113c5565b5090565b6040518060c00160405280600073ffffffffffffffffffffffffffffffffffffffff168152602001606081526020016000815260200160001515815260200160608152602001600081525090565b5b808211156113de5760008160009055506001016113c6565b5090565b6000604051905090565b600080fd5b600080fd5b600073ffffffffffffffffffffffffffffffffffffffff82169050919050565b6000611421826113f6565b9050919050565b61143181611416565b811461143c57600080fd5b50565b60008135905061144e81611428565b92915050565b6000819050919050565b61146781611454565b811461147257600080fd5b50565b6000813590506114848161145e565b92915050565b600080604083850312156114a1576114a06113ec565b5b60006114af8582860161143f565b92505060206114c085828601611475565b9150509250929050565b6114d381611416565b82525050565b600081519050919050565b600082825260208201905092915050565b60005b838110156115135780820151818401526020810190506114f8565b60008484015250505050565b6000601f19601f8301169050919050565b600061153b826114d9565b61154581856114e4565b93506115558185602086016114f5565b61155e8161151f565b840191505092915050565b61157281611454565b82525050565b60008115159050919050565b61158d81611578565b82525050565b600060a0820190506115a860008301886114ca565b81810360208301526115ba8187611530565b90506115c96040830186611569565b6115d66060830185611584565b6115e36080830184611569565b9695505050505050565b600080fd5b600080fd5b7f4e487b7100000000000000000000000000000000000000000000000000000000600052604160045260246000fd5b61162f8261151f565b810181811067ffffffffffffffff8211171561164e5761164d6115f7565b5b80604052505050565b60006116616113e2565b905061166d8282611626565b919050565b600067ffffffffffffffff82111561168d5761168c6115f7565b5b6116968261151f565b9050602081019050919050565b82818337600083830152505050565b60006116c56116c084611672565b611657565b9050828152602081018484840111156116e1576116e06115f2565b5b6116ec8482856116a3565b509392505050565b600082601f830112611709576117086115ed565b5b81356117198482602086016116b2565b91505092915050565b600060208284031215611738576117376113ec565b5b600082013567ffffffffffffffff811115611756576117556113f1565b5b611762848285016116f4565b91505092915050565b600060208284031215611781576117806113ec565b5b600061178f8482850161143f565b91505092915050565b600060208201905081810360008301526117b28184611530565b905092915050565b600081519050919050565b600082825260208201905092915050565b6000819050602082019050919050565b6117ef81611416565b82525050565b600082825260208201905092915050565b6000611811826114d9565b61181b81856117f5565b935061182b8185602086016114f5565b6118348161151f565b840191505092915050565b61184881611454565b82525050565b61185781611578565b82525050565b600081519050919050565b600082825260208201905092915050565b6000819050602082019050919050565b600061189583836117e6565b60208301905092915050565b6000602082019050919050565b60006118b98261185d565b6118c38185611868565b93506118ce83611879565b8060005b838110156118ff5781516118e68882611889565b97506118f1836118a1565b9250506001810190506118d2565b5085935050505092915050565b600060c08301600083015161192460008601826117e6565b506020830151848203602086015261193c8282611806565b9150506040830151611951604086018261183f565b506060830151611964606086018261184e565b506080830151848203608086015261197c82826118ae565b91505060a083015161199160a086018261183f565b508091505092915050565b60006119a8838361190c565b905092915050565b6000602082019050919050565b60006119c8826117ba565b6119d281856117c5565b9350836020820285016119e4856117d6565b8060005b85811015611a205784840389528151611a01858261199c565b9450611a0c836119b0565b925060208a019950506001810190506119e8565b50829750879550505050505092915050565b60006020820190508181036000830152611a4c81846119bd565b905092915050565b600060208284031215611a6a57611a696113ec565b5b6000611a7884828501611475565b91505092915050565b6000602082019050611a9660008301846114ca565b92915050565b6000604082019050611ab160008301856114ca565b8181036020830152611ac38184611530565b90509392505050565b7f4e487b7100000000000000000000000000000000000000000000000000000000600052602260045260246000fd5b60006002820490506001821680611b1357607f821691505b602082108103611b2657611b25611acc565b5b50919050565b60008190508160005260206000209050919050565b60006020601f8301049050919050565b600082821b905092915050565b600060088302611b8e7fffffffffffffffffffffffffffffffffffffffffffffffffffffffffffffffff82611b51565b611b988683611b51565b95508019841693508086168417925050509392505050565b6000819050919050565b6000611bd5611bd0611bcb84611454565b611bb0565b611454565b9050919050565b6000819050919050565b611bef83611bba565b611c03611bfb82611bdc565b848454611b5e565b825550505050565b600090565b611c18611c0b565b611c23818484611be6565b505050565b5b81811015611c4757611c3c600082611c10565b600181019050611c29565b5050565b601f821115611c8c57611c5d81611b2c565b611c6684611b41565b81016020851015611c75578190505b611c89611c8185611b41565b830182611c28565b50505b505050565b600082821c905092915050565b6000611caf60001984600802611c91565b1980831691505092915050565b6000611cc88383611c9e565b9150826002028217905092915050565b611ce1826114d9565b67ffffffffffffffff811115611cfa57611cf96115f7565b5b611d048254611afb565b611d0f828285611c4b565b600060209050601f831160018114611d425760008415611d30578287015190505b611d3a8582611cbc565b865550611da2565b601f198416611d5086611b2c565b60005b82811015611d7857848901518255600182019150602085019450602081019050611d53565b86831015611d955784890151611d91601f891682611c9e565b8355505b6001600288020188555050505b505050505050565b600081905092915050565b6000611dc0826114d9565b611dca8185611daa565b9350611dda8185602086016114f5565b80840191505092915050565b6000611df28284611db5565b915081905092915050565b7f496e76616c6964206d65737361676520696e6465780000000000000000000000600082015250565b6000611e336015836114e4565b9150611e3e82611dfd565b602082019050919050565b60006020820190508181036000830152611e6281611e26565b9050919050565b7f4e487b7100000000000000000000000000000000000000000000000000000000600052603260045260246000fd5b7f4e487b7100000000000000000000000000000000000000000000000000000000600052601160045260246000fd5b6000611ed282611454565b91507fffffffffffffffffffffffffffffffffffffffffffffffffffffffffffffffff8203611f0457611f03611e98565b5b60018201905091905056fea2646970667358221220ddd7a0f14c71e8784c4d1eaf47e47975223e41eca1520fbb64b7e390fcb24e1464736f6c63430008120033",
  "linkReferences": {},
  "deployedLinkReferences": {}
}