{
  "_format": "hh-sol-artifact-1",
  "contractName": "Social",
  "sourceName": "contracts/Social.sol",
  "abi": [
    {
      "inputs": [],
      "stateMutability": "nonpayable",
      "type": "constructor"
    },
    {
      "inputs": [
        {
          "internalType": "string",
          "name": "_message",
          "type": "string"
        }
      ],
      "name": "addMessage",
      "outputs": [],
      "stateMutability": "nonpayable",
      "type": "function"
    },
    {
      "inputs": [
        {
          "internalType": "string",
          "name": "_username",
          "type": "string"
        }
      ],
      "name": "addUser",
      "outputs": [],
      "stateMutability": "nonpayable",
      "type": "function"
    },
    {
      "inputs": [],
      "name": "displayMessages",
      "outputs": [
        {
          "components": [
            {
              "internalType": "address",
              "name": "id",
              "type": "address"
            },
            {
              "internalType": "string",
              "name": "text",
              "type": "string"
            },
            {
              "internalType": "uint256",
              "name": "timestamp",
              "type": "uint256"
            },
            {
              "internalType": "bool",
              "name": "exists",
              "type": "bool"
            },
            {
              "internalType": "address[]",
              "name": "likes",
              "type": "address[]"
            },
            {
              "internalType": "uint256",
              "name": "likeCount",
              "type": "uint256"
            }
          ],
          "internalType": "struct Social.Message[]",
          "name": "",
          "type": "tuple[]"
        }
      ],
      "stateMutability": "nonpayable",
      "type": "function"
    },
    {
      "inputs": [
        {
          "internalType": "string",
          "name": "_username",
          "type": "string"
        }
      ],
      "name": "findMessages",
      "outputs": [
        {
          "components": [
            {
              "internalType": "address",
              "name": "id",
              "type": "address"
            },
            {
              "internalType": "string",
              "name": "text",
              "type": "string"
            },
            {
              "internalType": "uint256",
              "name": "timestamp",
              "type": "uint256"
            },
            {
              "internalType": "bool",
              "name": "exists",
              "type": "bool"
            },
            {
              "internalType": "address[]",
              "name": "likes",
              "type": "address[]"
            },
            {
              "internalType": "uint256",
              "name": "likeCount",
              "type": "uint256"
            }
          ],
          "internalType": "struct Social.Message[]",
          "name": "",
          "type": "tuple[]"
        }
      ],
      "stateMutability": "view",
      "type": "function"
    },
    {
      "inputs": [
        {
          "internalType": "address",
          "name": "user",
          "type": "address"
        }
      ],
      "name": "findMessagesByAddress",
      "outputs": [
        {
          "components": [
            {
              "internalType": "address",
              "name": "id",
              "type": "address"
            },
            {
              "internalType": "string",
              "name": "text",
              "type": "string"
            },
            {
              "internalType": "uint256",
              "name": "timestamp",
              "type": "uint256"
            },
            {
              "internalType": "bool",
              "name": "exists",
              "type": "bool"
            },
            {
              "internalType": "address[]",
              "name": "likes",
              "type": "address[]"
            },
            {
              "internalType": "uint256",
              "name": "likeCount",
              "type": "uint256"
            }
          ],
          "internalType": "struct Social.Message[]",
          "name": "",
          "type": "tuple[]"
        }
      ],
      "stateMutability": "view",
      "type": "function"
    },
    {
      "inputs": [
        {
          "internalType": "address",
          "name": "_user",
          "type": "address"
        }
      ],
      "name": "findUsername",
      "outputs": [
        {
          "internalType": "string",
          "name": "",
          "type": "string"
        }
      ],
      "stateMutability": "view",
      "type": "function"
    },
    {
      "inputs": [
        {
          "internalType": "uint256",
          "name": "index",
          "type": "uint256"
        }
      ],
      "name": "likeMessage",
      "outputs": [],
      "stateMutability": "nonpayable",
      "type": "function"
    },
    {
      "inputs": [],
      "name": "myMessages",
      "outputs": [
        {
          "components": [
            {
              "internalType": "address",
              "name": "id",
              "type": "address"
            },
            {
              "internalType": "string",
              "name": "text",
              "type": "string"
            },
            {
              "internalType": "uint256",
              "name": "timestamp",
              "type": "uint256"
            },
            {
              "internalType": "bool",
              "name": "exists",
              "type": "bool"
            },
            {
              "internalType": "address[]",
              "name": "likes",
              "type": "address[]"
            },
            {
              "internalType": "uint256",
              "name": "likeCount",
              "type": "uint256"
            }
          ],
          "internalType": "struct Social.Message[]",
          "name": "",
          "type": "tuple[]"
        }
      ],
      "stateMutability": "view",
      "type": "function"
    },
    {
      "inputs": [],
      "name": "owner",
      "outputs": [
        {
          "internalType": "address",
          "name": "",
          "type": "address"
        }
      ],
      "stateMutability": "view",
      "type": "function"
    },
    {
      "inputs": [
        {
          "internalType": "address",
          "name": "",
          "type": "address"
        },
        {
          "internalType": "uint256",
          "name": "",
          "type": "uint256"
        }
      ],
      "name": "thread",
      "outputs": [
        {
          "internalType": "address",
          "name": "id",
          "type": "address"
        },
        {
          "internalType": "string",
          "name": "text",
          "type": "string"
        },
        {
          "internalType": "uint256",
          "name": "timestamp",
          "type": "uint256"
        },
        {
          "internalType": "bool",
          "name": "exists",
          "type": "bool"
        },
        {
          "internalType": "uint256",
          "name": "likeCount",
          "type": "uint256"
        }
      ],
      "stateMutability": "view",
      "type": "function"
    },
    {
      "inputs": [
        {
          "internalType": "string",
          "name": "",
          "type": "string"
        }
      ],
      "name": "usernames",
      "outputs": [
        {
          "internalType": "address",
          "name": "id",
          "type": "address"
        },
        {
          "internalType": "string",
          "name": "username",
          "type": "string"
        }
      ],
      "stateMutability": "view",
      "type": "function"
    },
    {
      "inputs": [
        {
          "internalType": "address",
          "name": "",
          "type": "address"
        }
      ],
      "name": "users",
      "outputs": [
        {
          "internalType": "address",
          "name": "id",
          "type": "address"
        },
        {
          "internalType": "string",
          "name": "username",
          "type": "string"
        }
      ],
      "stateMutability": "view",
      "type": "function"
    }
  ],
  "bytecode": "0x60806040523480156200001157600080fd5b50336000806101000a81548173ffffffffffffffffffffffffffffffffffffffff021916908373ffffffffffffffffffffffffffffffffffffffff160217905550606060006040518060c001604052803373ffffffffffffffffffffffffffffffffffffffff1681526020016040518060400160405280601581526020017f4e657720636f6e7472616374206465706c6f7965640000000000000000000000815250815260200142815260200160011515815260200183815260200160008152509050600260003373ffffffffffffffffffffffffffffffffffffffff1673ffffffffffffffffffffffffffffffffffffffff16815260200190815260200160002081908060018154018082558091505060019003906000526020600020906006020160009091909190915060008201518160000160006101000a81548173ffffffffffffffffffffffffffffffffffffffff021916908373ffffffffffffffffffffffffffffffffffffffff16021790555060208201518160010190816200019b9190620007aa565b506040820151816002015560608201518160030160006101000a81548160ff0219169083151502179055506080820151816004019080519060200190620001e492919062000482565b5060a082015181600501555050600060405180604001604052803373ffffffffffffffffffffffffffffffffffffffff1681526020016040518060400160405280600581526020017f4f776e6572000000000000000000000000000000000000000000000000000000815250815250905080600360008060009054906101000a900473ffffffffffffffffffffffffffffffffffffffff1673ffffffffffffffffffffffffffffffffffffffff1673ffffffffffffffffffffffffffffffffffffffff16815260200190815260200160002060008201518160000160006101000a81548173ffffffffffffffffffffffffffffffffffffffff021916908373ffffffffffffffffffffffffffffffffffffffff1602179055506020820151816001019081620003149190620007aa565b509050508060046040516200032990620008ec565b908152602001604051809103902060008201518160000160006101000a81548173ffffffffffffffffffffffffffffffffffffffff021916908373ffffffffffffffffffffffffffffffffffffffff1602179055506020820151816001019081620003959190620007aa565b50905050600182908060018154018082558091505060019003906000526020600020906006020160009091909190915060008201518160000160006101000a81548173ffffffffffffffffffffffffffffffffffffffff021916908373ffffffffffffffffffffffffffffffffffffffff1602179055506020820151816001019081620004239190620007aa565b506040820151816002015560608201518160030160006101000a81548160ff02191690831515021790555060808201518160040190805190602001906200046c92919062000482565b5060a08201518160050155505050505062000903565b828054828255906000526020600020908101928215620004fe579160200282015b82811115620004fd5782518260006101000a81548173ffffffffffffffffffffffffffffffffffffffff021916908373ffffffffffffffffffffffffffffffffffffffff16021790555091602001919060010190620004a3565b5b5090506200050d919062000511565b5090565b5b808211156200052c57600081600090555060010162000512565b5090565b600081519050919050565b7f4e487b7100000000000000000000000000000000000000000000000000000000600052604160045260246000fd5b7f4e487b7100000000000000000000000000000000000000000000000000000000600052602260045260246000fd5b60006002820490506001821680620005b257607f821691505b602082108103620005c857620005c76200056a565b5b50919050565b60008190508160005260206000209050919050565b60006020601f8301049050919050565b600082821b905092915050565b600060088302620006327fffffffffffffffffffffffffffffffffffffffffffffffffffffffffffffffff82620005f3565b6200063e8683620005f3565b95508019841693508086168417925050509392505050565b6000819050919050565b6000819050919050565b60006200068b620006856200067f8462000656565b62000660565b62000656565b9050919050565b6000819050919050565b620006a7836200066a565b620006bf620006b68262000692565b84845462000600565b825550505050565b600090565b620006d6620006c7565b620006e38184846200069c565b505050565b5b818110156200070b57620006ff600082620006cc565b600181019050620006e9565b5050565b601f8211156200075a576200072481620005ce565b6200072f84620005e3565b810160208510156200073f578190505b620007576200074e85620005e3565b830182620006e8565b50505b505050565b600082821c905092915050565b60006200077f600019846008026200075f565b1980831691505092915050565b60006200079a83836200076c565b9150826002028217905092915050565b620007b58262000530565b67ffffffffffffffff811115620007d157620007d06200053b565b5b620007dd825462000599565b620007ea8282856200070f565b600060209050601f8311600181146200082257600084156200080d578287015190505b6200081985826200078c565b86555062000889565b601f1984166200083286620005ce565b60005b828110156200085c5784890151825560018201915060208501945060208101905062000835565b868310156200087c578489015162000878601f8916826200076c565b8355505b6001600288020188555050505b505050505050565b600081905092915050565b7f4f776e6572000000000000000000000000000000000000000000000000000000600082015250565b6000620008d460058362000891565b9150620008e1826200089c565b600582019050919050565b6000620008f982620008c5565b9150819050919050565b6123d280620009136000396000f3fe608060405234801561001057600080fd5b50600436106100b45760003560e01c80638da5cb5b116100715780638da5cb5b1461018f578063a87430ba146101ad578063aaee301f146101de578063c4c661c01461020f578063d4370f3b1461022d578063f226f1b11461025d576100b4565b806316af80ad146100b957806318b8275a146100ed57806328627a441461010957806333273162146101395780634baeb4db146101575780636a226a4914610173575b600080fd5b6100d360048036038101906100ce9190611917565b61028d565b6040516100e4959493929190611a20565b60405180910390f35b61010760048036038101906101029190611baf565b610395565b005b610123600480360381019061011e9190611bf8565b6104e7565b6040516101309190611c25565b60405180910390f35b6101416105bb565b60405161014e9190611ebf565b60405180910390f35b610171600480360381019061016c9190611ee1565b610926565b005b61018d60048036038101906101889190611baf565b610b02565b005b610197610d49565b6040516101a49190611f0e565b60405180910390f35b6101c760048036038101906101c29190611bf8565b610d6d565b6040516101d5929190611f29565b60405180910390f35b6101f860048036038101906101f39190611baf565b610e39565b604051610206929190611f29565b60405180910390f35b610217610f1b565b6040516102249190611ebf565b60405180910390f35b61024760048036038101906102429190611baf565b61115c565b6040516102549190611ebf565b60405180910390f35b61027760048036038101906102729190611bf8565b61148f565b6040516102849190611ebf565b60405180910390f35b600260205281600052604060002081815481106102a957600080fd5b9060005260206000209060060201600091509150508060000160009054906101000a900473ffffffffffffffffffffffffffffffffffffffff16908060010180546102f390611f88565b80601f016020809104026020016040519081016040528092919081815260200182805461031f90611f88565b801561036c5780601f106103415761010080835404028352916020019161036c565b820191906000526020600020905b81548152906001019060200180831161034f57829003601f168201915b5050505050908060020154908060030160009054906101000a900460ff16908060050154905085565b600060405180604001604052803373ffffffffffffffffffffffffffffffffffffffff16815260200183815250905080600360003373ffffffffffffffffffffffffffffffffffffffff1673ffffffffffffffffffffffffffffffffffffffff16815260200190815260200160002060008201518160000160006101000a81548173ffffffffffffffffffffffffffffffffffffffff021916908373ffffffffffffffffffffffffffffffffffffffff16021790555060208201518160010190816104609190612165565b50905050806004836040516104759190612273565b908152602001604051809103902060008201518160000160006101000a81548173ffffffffffffffffffffffffffffffffffffffff021916908373ffffffffffffffffffffffffffffffffffffffff16021790555060208201518160010190816104df9190612165565b509050505050565b6060600360008373ffffffffffffffffffffffffffffffffffffffff1673ffffffffffffffffffffffffffffffffffffffff168152602001908152602001600020600101805461053690611f88565b80601f016020809104026020016040519081016040528092919081815260200182805461056290611f88565b80156105af5780601f10610584576101008083540402835291602001916105af565b820191906000526020600020905b81548152906001019060200180831161059257829003601f168201915b50505050509050919050565b6060806000600180549050036107235760016040518060c001604052803373ffffffffffffffffffffffffffffffffffffffff1681526020016040518060400160405280601581526020017f4e657720636f6e7472616374206465706c6f796564000000000000000000000081525081526020014281526020016001151581526020018381526020016000815250908060018154018082558091505060019003906000526020600020906006020160009091909190915060008201518160000160006101000a81548173ffffffffffffffffffffffffffffffffffffffff021916908373ffffffffffffffffffffffffffffffffffffffff16021790555060208201518160010190816106ce9190612165565b506040820151816002015560608201518160030160006101000a81548160ff021916908315150217905550608082015181600401908051906020019061071592919061177a565b5060a0820151816005015550505b6001805480602002602001604051908101604052809291908181526020016000905b8282101561091c57838290600052602060002090600602016040518060c00160405290816000820160009054906101000a900473ffffffffffffffffffffffffffffffffffffffff1673ffffffffffffffffffffffffffffffffffffffff1673ffffffffffffffffffffffffffffffffffffffff1681526020016001820180546107ce90611f88565b80601f01602080910402602001604051908101604052809291908181526020018280546107fa90611f88565b80156108475780601f1061081c57610100808354040283529160200191610847565b820191906000526020600020905b81548152906001019060200180831161082a57829003601f168201915b50505050508152602001600282015481526020016003820160009054906101000a900460ff16151515158152602001600482018054806020026020016040519081016040528092919081815260200182805480156108fa57602002820191906000526020600020905b8160009054906101000a900473ffffffffffffffffffffffffffffffffffffffff1673ffffffffffffffffffffffffffffffffffffffff16815260200190600101908083116108b0575b5050505050815260200160058201548152505081526020019060010190610745565b5050505091505090565b600180549050811061096d576040517f08c379a0000000000000000000000000000000000000000000000000000000008152600401610964906122d6565b60405180910390fd5b600060018281548110610983576109826122f6565b5b906000526020600020906006020190506000805b8260040180549050811015610a35573373ffffffffffffffffffffffffffffffffffffffff168360040182815481106109d3576109d26122f6565b5b9060005260206000200160009054906101000a900473ffffffffffffffffffffffffffffffffffffffff1673ffffffffffffffffffffffffffffffffffffffff1603610a225760019150610a35565b8080610a2d90612354565b915050610997565b5080610afd5760018381548110610a4f57610a4e6122f6565b5b9060005260206000209060060201600401339080600181540180825580915050600190039060005260206000200160009091909190916101000a81548173ffffffffffffffffffffffffffffffffffffffff021916908373ffffffffffffffffffffffffffffffffffffffff16021790555060018381548110610ad557610ad46122f6565b5b90600052602060002090600602016005016000815480929190610af790612354565b91905055505b505050565b606060006040518060c001604052803373ffffffffffffffffffffffffffffffffffffffff16815260200184815260200142815260200160011515815260200183815260200160008152509050600260003373ffffffffffffffffffffffffffffffffffffffff1673ffffffffffffffffffffffffffffffffffffffff16815260200190815260200160002081908060018154018082558091505060019003906000526020600020906006020160009091909190915060008201518160000160006101000a81548173ffffffffffffffffffffffffffffffffffffffff021916908373ffffffffffffffffffffffffffffffffffffffff1602179055506020820151816001019081610c149190612165565b506040820151816002015560608201518160030160006101000a81548160ff0219169083151502179055506080820151816004019080519060200190610c5b92919061177a565b5060a082015181600501555050600181908060018154018082558091505060019003906000526020600020906006020160009091909190915060008201518160000160006101000a81548173ffffffffffffffffffffffffffffffffffffffff021916908373ffffffffffffffffffffffffffffffffffffffff1602179055506020820151816001019081610cf09190612165565b506040820151816002015560608201518160030160006101000a81548160ff0219169083151502179055506080820151816004019080519060200190610d3792919061177a565b5060a082015181600501555050505050565b60008054906101000a900473ffffffffffffffffffffffffffffffffffffffff1681565b60036020528060005260406000206000915090508060000160009054906101000a900473ffffffffffffffffffffffffffffffffffffffff1690806001018054610db690611f88565b80601f0160208091040260200160405190810160405280929190818152602001828054610de290611f88565b8015610e2f5780601f10610e0457610100808354040283529160200191610e2f565b820191906000526020600020905b815481529060010190602001808311610e1257829003601f168201915b5050505050905082565b6004818051602081018201805184825260208301602085012081835280955050505050506000915090508060000160009054906101000a900473ffffffffffffffffffffffffffffffffffffffff1690806001018054610e9890611f88565b80601f0160208091040260200160405190810160405280929190818152602001828054610ec490611f88565b8015610f115780601f10610ee657610100808354040283529160200191610f11565b820191906000526020600020905b815481529060010190602001808311610ef457829003601f168201915b5050505050905082565b6060600260003373ffffffffffffffffffffffffffffffffffffffff1673ffffffffffffffffffffffffffffffffffffffff168152602001908152602001600020805480602002602001604051908101604052809291908181526020016000905b8282101561115357838290600052602060002090600602016040518060c00160405290816000820160009054906101000a900473ffffffffffffffffffffffffffffffffffffffff1673ffffffffffffffffffffffffffffffffffffffff1673ffffffffffffffffffffffffffffffffffffffff16815260200160018201805461100590611f88565b80601f016020809104026020016040519081016040528092919081815260200182805461103190611f88565b801561107e5780601f106110535761010080835404028352916020019161107e565b820191906000526020600020905b81548152906001019060200180831161106157829003601f168201915b50505050508152602001600282015481526020016003820160009054906101000a900460ff161515151581526020016004820180548060200260200160405190810160405280929190818152602001828054801561113157602002820191906000526020600020905b8160009054906101000a900473ffffffffffffffffffffffffffffffffffffffff1673ffffffffffffffffffffffffffffffffffffffff16815260200190600101908083116110e7575b5050505050815260200160058201548152505081526020019060010190610f7c565b50505050905090565b606060006004836040516111709190612273565b908152602001604051809103902060000160009054906101000a900473ffffffffffffffffffffffffffffffffffffffff1690506000600260008373ffffffffffffffffffffffffffffffffffffffff1673ffffffffffffffffffffffffffffffffffffffff16815260200190815260200160002080549050111561143157600260008273ffffffffffffffffffffffffffffffffffffffff1673ffffffffffffffffffffffffffffffffffffffff168152602001908152602001600020805480602002602001604051908101604052809291908181526020016000905b8282101561142557838290600052602060002090600602016040518060c00160405290816000820160009054906101000a900473ffffffffffffffffffffffffffffffffffffffff1673ffffffffffffffffffffffffffffffffffffffff1673ffffffffffffffffffffffffffffffffffffffff1681526020016001820180546112d790611f88565b80601f016020809104026020016040519081016040528092919081815260200182805461130390611f88565b80156113505780601f1061132557610100808354040283529160200191611350565b820191906000526020600020905b81548152906001019060200180831161133357829003601f168201915b50505050508152602001600282015481526020016003820160009054906101000a900460ff161515151581526020016004820180548060200260200160405190810160405280929190818152602001828054801561140357602002820191906000526020600020905b8160009054906101000a900473ffffffffffffffffffffffffffffffffffffffff1673ffffffffffffffffffffffffffffffffffffffff16815260200190600101908083116113b9575b505050505081526020016005820154815250508152602001906001019061124e565b5050505091505061148a565b600067ffffffffffffffff81111561144c5761144b611a84565b5b60405190808252806020026020018201604052801561148557816020015b611472611804565b81526020019060019003908161146a5790505b509150505b919050565b60606000600260008473ffffffffffffffffffffffffffffffffffffffff1673ffffffffffffffffffffffffffffffffffffffff16815260200190815260200160002080549050111561171d57600260008373ffffffffffffffffffffffffffffffffffffffff1673ffffffffffffffffffffffffffffffffffffffff168152602001908152602001600020805480602002602001604051908101604052809291908181526020016000905b8282101561171257838290600052602060002090600602016040518060c00160405290816000820160009054906101000a900473ffffffffffffffffffffffffffffffffffffffff1673ffffffffffffffffffffffffffffffffffffffff1673ffffffffffffffffffffffffffffffffffffffff1681526020016001820180546115c490611f88565b80601f01602080910402602001604051908101604052809291908181526020018280546115f090611f88565b801561163d5780601f106116125761010080835404028352916020019161163d565b820191906000526020600020905b81548152906001019060200180831161162057829003601f168201915b50505050508152602001600282015481526020016003820160009054906101000a900460ff16151515158152602001600482018054806020026020016040519081016040528092919081815260200182805480156116f057602002820191906000526020600020905b8160009054906101000a900473ffffffffffffffffffffffffffffffffffffffff1673ffffffffffffffffffffffffffffffffffffffff16815260200190600101908083116116a6575b505050505081526020016005820154815250508152602001906001019061153b565b505050509050611775565b600067ffffffffffffffff81111561173857611737611a84565b5b60405190808252806020026020018201604052801561177157816020015b61175e611804565b8152602001906001900390816117565790505b5090505b919050565b8280548282559060005260206000209081019282156117f3579160200282015b828111156117f25782518260006101000a81548173ffffffffffffffffffffffffffffffffffffffff021916908373ffffffffffffffffffffffffffffffffffffffff1602179055509160200191906001019061179a565b5b5090506118009190611852565b5090565b6040518060c00160405280600073ffffffffffffffffffffffffffffffffffffffff168152602001606081526020016000815260200160001515815260200160608152602001600081525090565b5b8082111561186b576000816000905550600101611853565b5090565b6000604051905090565b600080fd5b600080fd5b600073ffffffffffffffffffffffffffffffffffffffff82169050919050565b60006118ae82611883565b9050919050565b6118be816118a3565b81146118c957600080fd5b50565b6000813590506118db816118b5565b92915050565b6000819050919050565b6118f4816118e1565b81146118ff57600080fd5b50565b600081359050611911816118eb565b92915050565b6000806040838503121561192e5761192d611879565b5b600061193c858286016118cc565b925050602061194d85828601611902565b9150509250929050565b611960816118a3565b82525050565b600081519050919050565b600082825260208201905092915050565b60005b838110156119a0578082015181840152602081019050611985565b60008484015250505050565b6000601f19601f8301169050919050565b60006119c882611966565b6119d28185611971565b93506119e2818560208601611982565b6119eb816119ac565b840191505092915050565b6119ff816118e1565b82525050565b60008115159050919050565b611a1a81611a05565b82525050565b600060a082019050611a356000830188611957565b8181036020830152611a4781876119bd565b9050611a5660408301866119f6565b611a636060830185611a11565b611a7060808301846119f6565b9695505050505050565b600080fd5b600080fd5b7f4e487b7100000000000000000000000000000000000000000000000000000000600052604160045260246000fd5b611abc826119ac565b810181811067ffffffffffffffff82111715611adb57611ada611a84565b5b80604052505050565b6000611aee61186f565b9050611afa8282611ab3565b919050565b600067ffffffffffffffff821115611b1a57611b19611a84565b5b611b23826119ac565b9050602081019050919050565b82818337600083830152505050565b6000611b52611b4d84611aff565b611ae4565b905082815260208101848484011115611b6e57611b6d611a7f565b5b611b79848285611b30565b509392505050565b600082601f830112611b9657611b95611a7a565b5b8135611ba6848260208601611b3f565b91505092915050565b600060208284031215611bc557611bc4611879565b5b600082013567ffffffffffffffff811115611be357611be261187e565b5b611bef84828501611b81565b91505092915050565b600060208284031215611c0e57611c0d611879565b5b6000611c1c848285016118cc565b91505092915050565b60006020820190508181036000830152611c3f81846119bd565b905092915050565b600081519050919050565b600082825260208201905092915050565b6000819050602082019050919050565b611c7c816118a3565b82525050565b600082825260208201905092915050565b6000611c9e82611966565b611ca88185611c82565b9350611cb8818560208601611982565b611cc1816119ac565b840191505092915050565b611cd5816118e1565b82525050565b611ce481611a05565b82525050565b600081519050919050565b600082825260208201905092915050565b6000819050602082019050919050565b6000611d228383611c73565b60208301905092915050565b6000602082019050919050565b6000611d4682611cea565b611d508185611cf5565b9350611d5b83611d06565b8060005b83811015611d8c578151611d738882611d16565b9750611d7e83611d2e565b925050600181019050611d5f565b5085935050505092915050565b600060c083016000830151611db16000860182611c73565b5060208301518482036020860152611dc98282611c93565b9150506040830151611dde6040860182611ccc565b506060830151611df16060860182611cdb565b5060808301518482036080860152611e098282611d3b565b91505060a0830151611e1e60a0860182611ccc565b508091505092915050565b6000611e358383611d99565b905092915050565b6000602082019050919050565b6000611e5582611c47565b611e5f8185611c52565b935083602082028501611e7185611c63565b8060005b85811015611ead5784840389528151611e8e8582611e29565b9450611e9983611e3d565b925060208a01995050600181019050611e75565b50829750879550505050505092915050565b60006020820190508181036000830152611ed98184611e4a565b905092915050565b600060208284031215611ef757611ef6611879565b5b6000611f0584828501611902565b91505092915050565b6000602082019050611f236000830184611957565b92915050565b6000604082019050611f3e6000830185611957565b8181036020830152611f5081846119bd565b90509392505050565b7f4e487b7100000000000000000000000000000000000000000000000000000000600052602260045260246000fd5b60006002820490506001821680611fa057607f821691505b602082108103611fb357611fb2611f59565b5b50919050565b60008190508160005260206000209050919050565b60006020601f8301049050919050565b600082821b905092915050565b60006008830261201b7fffffffffffffffffffffffffffffffffffffffffffffffffffffffffffffffff82611fde565b6120258683611fde565b95508019841693508086168417925050509392505050565b6000819050919050565b600061206261205d612058846118e1565b61203d565b6118e1565b9050919050565b6000819050919050565b61207c83612047565b61209061208882612069565b848454611feb565b825550505050565b600090565b6120a5612098565b6120b0818484612073565b505050565b5b818110156120d4576120c960008261209d565b6001810190506120b6565b5050565b601f821115612119576120ea81611fb9565b6120f384611fce565b81016020851015612102578190505b61211661210e85611fce565b8301826120b5565b50505b505050565b600082821c905092915050565b600061213c6000198460080261211e565b1980831691505092915050565b6000612155838361212b565b9150826002028217905092915050565b61216e82611966565b67ffffffffffffffff81111561218757612186611a84565b5b6121918254611f88565b61219c8282856120d8565b600060209050601f8311600181146121cf57600084156121bd578287015190505b6121c78582612149565b86555061222f565b601f1984166121dd86611fb9565b60005b82811015612205578489015182556001820191506020850194506020810190506121e0565b86831015612222578489015161221e601f89168261212b565b8355505b6001600288020188555050505b505050505050565b600081905092915050565b600061224d82611966565b6122578185612237565b9350612267818560208601611982565b80840191505092915050565b600061227f8284612242565b915081905092915050565b7f496e76616c6964206d65737361676520696e6465780000000000000000000000600082015250565b60006122c0601583611971565b91506122cb8261228a565b602082019050919050565b600060208201905081810360008301526122ef816122b3565b9050919050565b7f4e487b7100000000000000000000000000000000000000000000000000000000600052603260045260246000fd5b7f4e487b7100000000000000000000000000000000000000000000000000000000600052601160045260246000fd5b600061235f826118e1565b91507fffffffffffffffffffffffffffffffffffffffffffffffffffffffffffffffff820361239157612390612325565b5b60018201905091905056fea264697066735822122069b1f3dcb05ff9d81c3533007c7c156035126842598e0a688c015982e810e56064736f6c63430008120033",
  "linkReferences": {},
  "deployedLinkReferences": {}
}