{
  "_format": "hh-sol-artifact-1",
  "contractName": "Social",
  "sourceName": "contracts/Social.sol",
  "abi": [
    {
      "inputs": [],
      "stateMutability": "nonpayable",
      "type": "constructor"
    },
    {
      "inputs": [
        {
          "internalType": "string",
          "name": "_message",
          "type": "string"
        }
      ],
      "name": "addMessage",
      "outputs": [],
      "stateMutability": "nonpayable",
      "type": "function"
    },
    {
      "inputs": [
        {
          "internalType": "string",
          "name": "_username",
          "type": "string"
        }
      ],
      "name": "addUser",
      "outputs": [],
      "stateMutability": "nonpayable",
      "type": "function"
    },
    {
      "inputs": [
        {
          "internalType": "address",
          "name": "_user",
          "type": "address"
        }
      ],
      "name": "findMessages",
      "outputs": [
        {
          "components": [
            {
              "internalType": "address",
              "name": "id",
              "type": "address"
            },
            {
              "internalType": "string",
              "name": "text",
              "type": "string"
            },
            {
              "internalType": "uint256",
              "name": "timestamp",
              "type": "uint256"
            },
            {
              "internalType": "bool",
              "name": "exists",
              "type": "bool"
            }
          ],
          "internalType": "struct Social.Message[]",
          "name": "",
          "type": "tuple[]"
        }
      ],
      "stateMutability": "view",
      "type": "function"
    },
    {
      "inputs": [
        {
          "internalType": "address",
          "name": "_user",
          "type": "address"
        }
      ],
      "name": "findUsername",
      "outputs": [
        {
          "internalType": "string",
          "name": "",
          "type": "string"
        }
      ],
      "stateMutability": "view",
      "type": "function"
    },
    {
      "inputs": [],
      "name": "myMessages",
      "outputs": [
        {
          "components": [
            {
              "internalType": "address",
              "name": "id",
              "type": "address"
            },
            {
              "internalType": "string",
              "name": "text",
              "type": "string"
            },
            {
              "internalType": "uint256",
              "name": "timestamp",
              "type": "uint256"
            },
            {
              "internalType": "bool",
              "name": "exists",
              "type": "bool"
            }
          ],
          "internalType": "struct Social.Message[]",
          "name": "",
          "type": "tuple[]"
        }
      ],
      "stateMutability": "view",
      "type": "function"
    },
    {
      "inputs": [],
      "name": "owner",
      "outputs": [
        {
          "internalType": "address",
          "name": "",
          "type": "address"
        }
      ],
      "stateMutability": "view",
      "type": "function"
    },
    {
      "inputs": [
        {
          "internalType": "address",
          "name": "",
          "type": "address"
        },
        {
          "internalType": "uint256",
          "name": "",
          "type": "uint256"
        }
      ],
      "name": "thread",
      "outputs": [
        {
          "internalType": "address",
          "name": "id",
          "type": "address"
        },
        {
          "internalType": "string",
          "name": "text",
          "type": "string"
        },
        {
          "internalType": "uint256",
          "name": "timestamp",
          "type": "uint256"
        },
        {
          "internalType": "bool",
          "name": "exists",
          "type": "bool"
        }
      ],
      "stateMutability": "view",
      "type": "function"
    },
    {
      "inputs": [
        {
          "internalType": "address",
          "name": "",
          "type": "address"
        }
      ],
      "name": "users",
      "outputs": [
        {
          "internalType": "address",
          "name": "id",
          "type": "address"
        },
        {
          "internalType": "string",
          "name": "username",
          "type": "string"
        }
      ],
      "stateMutability": "view",
      "type": "function"
    }
  ],
  "bytecode": "0x60806040523480156200001157600080fd5b50336000806101000a81548173ffffffffffffffffffffffffffffffffffffffff021916908373ffffffffffffffffffffffffffffffffffffffff160217905550600160003373ffffffffffffffffffffffffffffffffffffffff1673ffffffffffffffffffffffffffffffffffffffff16815260200190815260200160002060405180608001604052803373ffffffffffffffffffffffffffffffffffffffff1681526020016040518060400160405280601581526020017f4e657720636f6e7472616374206465706c6f7965640000000000000000000000815250815260200142815260200160011515815250908060018154018082558091505060019003906000526020600020906004020160009091909190915060008201518160000160006101000a81548173ffffffffffffffffffffffffffffffffffffffff021916908373ffffffffffffffffffffffffffffffffffffffff160217905550602082015181600101908162000187919062000556565b506040820151816002015560608201518160030160006101000a81548160ff021916908315150217905550505060405180604001604052803373ffffffffffffffffffffffffffffffffffffffff1681526020016040518060400160405280600581526020017f4f776e6572000000000000000000000000000000000000000000000000000000815250815250600260008060009054906101000a900473ffffffffffffffffffffffffffffffffffffffff1673ffffffffffffffffffffffffffffffffffffffff1673ffffffffffffffffffffffffffffffffffffffff16815260200190815260200160002060008201518160000160006101000a81548173ffffffffffffffffffffffffffffffffffffffff021916908373ffffffffffffffffffffffffffffffffffffffff1602179055506020820151816001019081620002d2919062000556565b509050506200063d565b600081519050919050565b7f4e487b7100000000000000000000000000000000000000000000000000000000600052604160045260246000fd5b7f4e487b7100000000000000000000000000000000000000000000000000000000600052602260045260246000fd5b600060028204905060018216806200035e57607f821691505b60208210810362000374576200037362000316565b5b50919050565b60008190508160005260206000209050919050565b60006020601f8301049050919050565b600082821b905092915050565b600060088302620003de7fffffffffffffffffffffffffffffffffffffffffffffffffffffffffffffffff826200039f565b620003ea86836200039f565b95508019841693508086168417925050509392505050565b6000819050919050565b6000819050919050565b600062000437620004316200042b8462000402565b6200040c565b62000402565b9050919050565b6000819050919050565b620004538362000416565b6200046b62000462826200043e565b848454620003ac565b825550505050565b600090565b6200048262000473565b6200048f81848462000448565b505050565b5b81811015620004b757620004ab60008262000478565b60018101905062000495565b5050565b601f8211156200050657620004d0816200037a565b620004db846200038f565b81016020851015620004eb578190505b62000503620004fa856200038f565b83018262000494565b50505b505050565b600082821c905092915050565b60006200052b600019846008026200050b565b1980831691505092915050565b600062000546838362000518565b9150826002028217905092915050565b6200056182620002dc565b67ffffffffffffffff8111156200057d576200057c620002e7565b5b62000589825462000345565b62000596828285620004bb565b600060209050601f831160018114620005ce5760008415620005b9578287015190505b620005c5858262000538565b86555062000635565b601f198416620005de866200037a565b60005b828110156200060857848901518255600182019150602085019450602081019050620005e1565b8683101562000628578489015162000624601f89168262000518565b8355505b6001600288020188555050505b505050505050565b611510806200064d6000396000f3fe608060405234801561001057600080fd5b50600436106100885760003560e01c80636a226a491161005b5780636a226a491461013c5780638da5cb5b14610158578063a87430ba14610176578063c4c661c0146101a757610088565b806316af80ad1461008d57806318b8275a146100c057806328627a44146100dc5780634bc3b6771461010c575b600080fd5b6100a760048036038101906100a29190610ca2565b6101c5565b6040516100b79493929190610dab565b60405180910390f35b6100da60048036038101906100d59190610f2c565b6102c7565b005b6100f660048036038101906100f19190610f75565b610394565b6040516101039190610fa2565b60405180910390f35b61012660048036038101906101219190610f75565b610468565b6040516101339190611160565b60405180910390f35b61015660048036038101906101519190610f2c565b610833565b005b610160610961565b60405161016d9190611182565b60405180910390f35b610190600480360381019061018b9190610f75565b610985565b60405161019e92919061119d565b60405180910390f35b6101af610a51565b6040516101bc9190611160565b60405180910390f35b600160205281600052604060002081815481106101e157600080fd5b9060005260206000209060040201600091509150508060000160009054906101000a900473ffffffffffffffffffffffffffffffffffffffff169080600101805461022b906111fc565b80601f0160208091040260200160405190810160405280929190818152602001828054610257906111fc565b80156102a45780601f10610279576101008083540402835291602001916102a4565b820191906000526020600020905b81548152906001019060200180831161028757829003601f168201915b5050505050908060020154908060030160009054906101000a900460ff16905084565b60405180604001604052803373ffffffffffffffffffffffffffffffffffffffff16815260200182815250600260003373ffffffffffffffffffffffffffffffffffffffff1673ffffffffffffffffffffffffffffffffffffffff16815260200190815260200160002060008201518160000160006101000a81548173ffffffffffffffffffffffffffffffffffffffff021916908373ffffffffffffffffffffffffffffffffffffffff160217905550602082015181600101908161038d91906113d9565b5090505050565b6060600260008373ffffffffffffffffffffffffffffffffffffffff1673ffffffffffffffffffffffffffffffffffffffff16815260200190815260200160002060010180546103e3906111fc565b80601f016020809104026020016040519081016040528092919081815260200182805461040f906111fc565b801561045c5780601f106104315761010080835404028352916020019161045c565b820191906000526020600020905b81548152906001019060200180831161043f57829003601f168201915b50505050509050919050565b6060600160008373ffffffffffffffffffffffffffffffffffffffff1673ffffffffffffffffffffffffffffffffffffffff1681526020019081526020016000206000815481106104bc576104bb6114ab565b5b906000526020600020906004020160030160009054906101000a900460ff161561068957600160008373ffffffffffffffffffffffffffffffffffffffff1673ffffffffffffffffffffffffffffffffffffffff168152602001908152602001600020805480602002602001604051908101604052809291908181526020016000905b8282101561067e57838290600052602060002090600402016040518060800160405290816000820160009054906101000a900473ffffffffffffffffffffffffffffffffffffffff1673ffffffffffffffffffffffffffffffffffffffff1673ffffffffffffffffffffffffffffffffffffffff1681526020016001820180546105c8906111fc565b80601f01602080910402602001604051908101604052809291908181526020018280546105f4906111fc565b80156106415780601f1061061657610100808354040283529160200191610641565b820191906000526020600020905b81548152906001019060200180831161062457829003601f168201915b50505050508152602001600282015481526020016003820160009054906101000a900460ff1615151515815250508152602001906001019061053f565b50505050905061082e565b600160008373ffffffffffffffffffffffffffffffffffffffff1673ffffffffffffffffffffffffffffffffffffffff168152602001908152602001600020805480602002602001604051908101604052809291908181526020016000905b8282101561082757838290600052602060002090600402016040518060800160405290816000820160009054906101000a900473ffffffffffffffffffffffffffffffffffffffff1673ffffffffffffffffffffffffffffffffffffffff1673ffffffffffffffffffffffffffffffffffffffff168152602001600182018054610771906111fc565b80601f016020809104026020016040519081016040528092919081815260200182805461079d906111fc565b80156107ea5780601f106107bf576101008083540402835291602001916107ea565b820191906000526020600020905b8154815290600101906020018083116107cd57829003601f168201915b50505050508152602001600282015481526020016003820160009054906101000a900460ff161515151581525050815260200190600101906106e8565b5050505090505b919050565b600160003373ffffffffffffffffffffffffffffffffffffffff1673ffffffffffffffffffffffffffffffffffffffff16815260200190815260200160002060405180608001604052803373ffffffffffffffffffffffffffffffffffffffff16815260200183815260200142815260200160011515815250908060018154018082558091505060019003906000526020600020906004020160009091909190915060008201518160000160006101000a81548173ffffffffffffffffffffffffffffffffffffffff021916908373ffffffffffffffffffffffffffffffffffffffff160217905550602082015181600101908161093191906113d9565b506040820151816002015560608201518160030160006101000a81548160ff021916908315150217905550505050565b60008054906101000a900473ffffffffffffffffffffffffffffffffffffffff1681565b60026020528060005260406000206000915090508060000160009054906101000a900473ffffffffffffffffffffffffffffffffffffffff16908060010180546109ce906111fc565b80601f01602080910402602001604051908101604052809291908181526020018280546109fa906111fc565b8015610a475780601f10610a1c57610100808354040283529160200191610a47565b820191906000526020600020905b815481529060010190602001808311610a2a57829003601f168201915b5050505050905082565b6060600160003373ffffffffffffffffffffffffffffffffffffffff1673ffffffffffffffffffffffffffffffffffffffff168152602001908152602001600020805480602002602001604051908101604052809291908181526020016000905b82821015610bf157838290600052602060002090600402016040518060800160405290816000820160009054906101000a900473ffffffffffffffffffffffffffffffffffffffff1673ffffffffffffffffffffffffffffffffffffffff1673ffffffffffffffffffffffffffffffffffffffff168152602001600182018054610b3b906111fc565b80601f0160208091040260200160405190810160405280929190818152602001828054610b67906111fc565b8015610bb45780601f10610b8957610100808354040283529160200191610bb4565b820191906000526020600020905b815481529060010190602001808311610b9757829003601f168201915b50505050508152602001600282015481526020016003820160009054906101000a900460ff16151515158152505081526020019060010190610ab2565b50505050905090565b6000604051905090565b600080fd5b600080fd5b600073ffffffffffffffffffffffffffffffffffffffff82169050919050565b6000610c3982610c0e565b9050919050565b610c4981610c2e565b8114610c5457600080fd5b50565b600081359050610c6681610c40565b92915050565b6000819050919050565b610c7f81610c6c565b8114610c8a57600080fd5b50565b600081359050610c9c81610c76565b92915050565b60008060408385031215610cb957610cb8610c04565b5b6000610cc785828601610c57565b9250506020610cd885828601610c8d565b9150509250929050565b610ceb81610c2e565b82525050565b600081519050919050565b600082825260208201905092915050565b60005b83811015610d2b578082015181840152602081019050610d10565b60008484015250505050565b6000601f19601f8301169050919050565b6000610d5382610cf1565b610d5d8185610cfc565b9350610d6d818560208601610d0d565b610d7681610d37565b840191505092915050565b610d8a81610c6c565b82525050565b60008115159050919050565b610da581610d90565b82525050565b6000608082019050610dc06000830187610ce2565b8181036020830152610dd28186610d48565b9050610de16040830185610d81565b610dee6060830184610d9c565b95945050505050565b600080fd5b600080fd5b7f4e487b7100000000000000000000000000000000000000000000000000000000600052604160045260246000fd5b610e3982610d37565b810181811067ffffffffffffffff82111715610e5857610e57610e01565b5b80604052505050565b6000610e6b610bfa565b9050610e778282610e30565b919050565b600067ffffffffffffffff821115610e9757610e96610e01565b5b610ea082610d37565b9050602081019050919050565b82818337600083830152505050565b6000610ecf610eca84610e7c565b610e61565b905082815260208101848484011115610eeb57610eea610dfc565b5b610ef6848285610ead565b509392505050565b600082601f830112610f1357610f12610df7565b5b8135610f23848260208601610ebc565b91505092915050565b600060208284031215610f4257610f41610c04565b5b600082013567ffffffffffffffff811115610f6057610f5f610c09565b5b610f6c84828501610efe565b91505092915050565b600060208284031215610f8b57610f8a610c04565b5b6000610f9984828501610c57565b91505092915050565b60006020820190508181036000830152610fbc8184610d48565b905092915050565b600081519050919050565b600082825260208201905092915050565b6000819050602082019050919050565b610ff981610c2e565b82525050565b600082825260208201905092915050565b600061101b82610cf1565b6110258185610fff565b9350611035818560208601610d0d565b61103e81610d37565b840191505092915050565b61105281610c6c565b82525050565b61106181610d90565b82525050565b600060808301600083015161107f6000860182610ff0565b50602083015184820360208601526110978282611010565b91505060408301516110ac6040860182611049565b5060608301516110bf6060860182611058565b508091505092915050565b60006110d68383611067565b905092915050565b6000602082019050919050565b60006110f682610fc4565b6111008185610fcf565b93508360208202850161111285610fe0565b8060005b8581101561114e578484038952815161112f85826110ca565b945061113a836110de565b925060208a01995050600181019050611116565b50829750879550505050505092915050565b6000602082019050818103600083015261117a81846110eb565b905092915050565b60006020820190506111976000830184610ce2565b92915050565b60006040820190506111b26000830185610ce2565b81810360208301526111c48184610d48565b90509392505050565b7f4e487b7100000000000000000000000000000000000000000000000000000000600052602260045260246000fd5b6000600282049050600182168061121457607f821691505b602082108103611227576112266111cd565b5b50919050565b60008190508160005260206000209050919050565b60006020601f8301049050919050565b600082821b905092915050565b60006008830261128f7fffffffffffffffffffffffffffffffffffffffffffffffffffffffffffffffff82611252565b6112998683611252565b95508019841693508086168417925050509392505050565b6000819050919050565b60006112d66112d16112cc84610c6c565b6112b1565b610c6c565b9050919050565b6000819050919050565b6112f0836112bb565b6113046112fc826112dd565b84845461125f565b825550505050565b600090565b61131961130c565b6113248184846112e7565b505050565b5b818110156113485761133d600082611311565b60018101905061132a565b5050565b601f82111561138d5761135e8161122d565b61136784611242565b81016020851015611376578190505b61138a61138285611242565b830182611329565b50505b505050565b600082821c905092915050565b60006113b060001984600802611392565b1980831691505092915050565b60006113c9838361139f565b9150826002028217905092915050565b6113e282610cf1565b67ffffffffffffffff8111156113fb576113fa610e01565b5b61140582546111fc565b61141082828561134c565b600060209050601f8311600181146114435760008415611431578287015190505b61143b85826113bd565b8655506114a3565b601f1984166114518661122d565b60005b8281101561147957848901518255600182019150602085019450602081019050611454565b868310156114965784890151611492601f89168261139f565b8355505b6001600288020188555050505b505050505050565b7f4e487b7100000000000000000000000000000000000000000000000000000000600052603260045260246000fdfea2646970667358221220544deb73664f279d74bb8e4341fe948b434727e9206317caf0479f4ad91e223264736f6c63430008120033",
  "linkReferences": {},
  "deployedLinkReferences": {}
}